:020000020000FC
:1000000007E800937A0000E000937B0000E400938F
:100010007C000FEF0093240000930A0102E3002EFE
:1000200000E0102E32E0309325000E942000813045
:10003000C9F730E03093250040E40E943300F2CF4E
:1000400000917A00006400937A0000917A000074B5
:10005000E1F7A0917800B09179008827A015B1054B
:1000600008F481E0089500005FEF00006FEF0000EA
:100070006A95E9F75A95C9F74A95A9F730E03093A0
:0A008000250030930B01CECF089548
:00000001FF
