:100000000C9472000C948B000C948B000C948B005D
:100010000C948B000C948B000C948B000C948B0034
:100020000C948B000C948B000C948B000C948B0024
:100030000C948B000C948B000C948B000C948B0014
:100040000C948B000C948B000C948B000C948B0004
:100050000C948B000C948B000C948B000C948B00F4
:100060000C948B000C948B000C948B000C948B00E4
:100070000C948B000C948B000C948B000C948B00D4
:100080000C948B000C948B000C948B000C948B00C4
:100090000C948B000C948B000C948B000C948B00B4
:1000A0000C948B000C948B000C948B000C948B00A4
:1000B0000C948B000C948B000C948B000C948B0094
:1000C0000C948B000C948B000C948B000C948B0084
:1000D0000C948B000C948B000C948B000C948B0074
:1000E0000C948B0011241FBECFEFD1E2DEBFCDBF39
:1000F00000E00CBF12E0A0E0B2E0E4E1F4E000E0D8
:100100000BBF02C007900D92A637B107D9F70E9426
:100110005B010C9408020C940000982F809102015E
:100120008F7E8093020197FF05C08091020180615C
:100130008093020180910201877F8093020196FFE4
:1001400005C080910201886080930201739895FD3B
:10015000739AA59894FDA59A80910201806480937A
:10016000020185E08A95F1F7809102018F7B8093EF
:10017000020108951F93182F0E948D00812F8295F0
:10018000807F0E948D0088EC90E00197F1F71F912D
:1001900008951F93182F809102018F7D8093020193
:1001A000812F0E94BA00143018F0103840F005C0BA
:1001B00080E49FE10197F1F710E8109300021F918E
:1001C0000895909102019062909302010E94BA00FA
:1001D000809100028F5F80930002803921F0803D82
:1001E00029F480E801C080EC0E94C9000895CF93F3
:1001F000DF93EC0103C00E94E100219688818823EF
:10020000D1F7DF91CF9108951F93182F04C080E29A
:100210000E94E10011501123D1F71F9108950F930F
:100220001F939D9A6B9AE1E0F1E080818860808362
:10023000808180618083808180628083808180640E
:100240008083E2E0F1E080818F7B808380818F7DFD
:10025000808380E69AEE0197F1F780E30E948D009B
:1002600080E190E40197F1F780E30E948D0080E93E
:1002700091E00197F1F780E30E948D0008EC10E017
:10028000C8010197F1F780E20E948D00C801019733
:10029000F1F788E20E94C90088E00E94C90081E06D
:1002A0000E94C90086E00E94C9008CE00E94C9003B
:1002B0001F910F910895CDB7DEB7CA57D040DEBF6A
:1002C000CDBF0E940F018E01095E1F4F33E5732ED3
:1002D00028E2822E912C8C0E9D1E5E010894A11C9A
:1002E000B11C90E9C92E91E0D92E86E0E82EF12CC0
:1002F000EC0EFD1E80E80E94C900D801E1E0F2E0AA
:1003000081E101900D928150E1F7F401872D119266
:100310008A95E9F7C8010E94F70080EC0E94C900A5
:10032000F80101900020E9F73197CF01801B910B74
:10033000B5014AE050E00E94C301C5010E94F700E8
:1003400088E893E1F6013197F1F70197D9F7D701E2
:10035000E5E6F2E081E101900D928150E1F780E85D
:100360000E94C900C7010E94F70080EC0E94C900EA
:10037000C7010E94F70088E893E1F6013197F1F791
:100380000197D9F7B7CFFB019F01E8944230C4F041
:100390004532B4F44A3029F497FB1EF490958195C8
:1003A0009F4F642F77270E94F401805D8A330CF001
:1003B000895D8193CB010097A1F716F45DE251931B
:1003C0001082C9010C94E401DC01FC01672F7191DA
:1003D0007723E1F7329704C07C916D93708362912B
:1003E000AE17BF07C8F30895AA1BBB1B51E107C096
:1003F000AA1FBB1FA617B70710F0A61BB70B881FB5
:10040000991F5A95A9F780959095BC01CD01089543
:04041000F894FFCF8E
:1004140080556E6976657273697479206F662056AB
:10042400690000000000000000000000000000005F
:1004340000000000000000000000000000000000B8
:1004440000000000000000000000000000000000A8
:100454000000000000000000000000000000000098
:100464000000000000000000000000000000000088
:100474000000000000202020202020202020202018
:06048400202020202000D2
:00000001FF
