:020000020000FC
:10000000F3E0E0E000E3019307E3019300E30193F1
:100010000027008311E20FEF1EBF0DBF1FEF1093EB
:10002000240010930A0113E008E41F930F9312E0D9
:1000300000E01F930F939FD00F910F910F910F919D
:1000400023E012E000E01F930F9304D02A952223AF
:10005000C1F7FFCFDF93CF93CDB7DEB72397CDBFE7
:10006000DEBF0983FA83EB83E985FA8501910023DA
:1000700019F00BD00C943600EB81FA81098123969C
:10008000CDBFDEBFCF91DF9108950F931F932F93C4
:100090005F930F3F51F1102F029524E016950695BE
:1000A0002A95E1F724E0211B222319F0000F2A955D
:1000B000D9F7222758E0502349F00F9306E01ED0CD
:1000C000BBD052D0B9D00F910C946D000F9303E0C8
:1000D00015D0B6D049D0B0D00F91000F1A9549F77E
:1000E0005F912F911F910F9108953ED0A5D0A4D07C
:1000F000A3D05F912F911F910F910895013051F07E
:10010000023079F00330A1F00430C9F00530F1F08D
:10011000063019F132E03093250040E040930B01A6
:1001200008953AE03093250040E040930B01089594
:100130003AE03093250042E040930B0108953AE005
:10014000309325004AE040930B0108953AE0309344
:1001500025004AE240930B0108953AE030932500D0
:100160004AEA40930B01089530E03093250040E0C7
:1001700040930B010895DF93CF93CDB7DEB725975A
:10018000CDBFDEBF0983FA83EB83BC83AD83AB8530
:10019000BC85ED85FE850591002331F00F930FD0CE
:1001A0000F910D920C94CB000981EA81FB81AC8107
:1001B000BD812596CDBFDEBFCF91DF910895DF933E
:1001C000CF93CDB7DEB72697CDBFDEBF0983FA83C5
:1001D000EB831C832D833E8300243327EAE6F2E081
:1001E0000C850032D9F0015421F018E038960A95B8
:1001F000E1F7319625912E3229F0000C03943395C6
:100200000C940401000C33952491222399F7029455
:1002100003943A95E9F702940C9410012FEF022E03
:100220003E812D811C81EB81FA8109812696CDBF0B
:10023000DEBFCF91DF91089505D004D003D008959B
:1002400001D0089501D008950F931F932F9308E0D4
:100250000A9539F01FEF1A95D9F32FEF2A95D9F3A4
:10026000FDCF2F911F910F910895412E2D00000079
:100270000000422D2E2E2E000000432D2E2D2E008C
:100280000000442D2E2E00000000452E000000002E
:100290000000462E2E2D2E000000472D2D2E000092
:1002A0000000482E2E2E2E000000492E2E000000A9
:1002B00000004A2E2D2D2D0000004B2D2E2D2E003E
:1002C00000004C2E2D2E2E0000004D2D2D00000084
:1002D00000004E2D2E00000000004F2D2D2D00009F
:1002E0000000502E2D2D2E000000512D2D2E2D0002
:1002F0000000522E2D2E00000000532E2E2E000046
:100300000000542D000000000000552E2E2D00008E
:100310000000562E2E2E2D000000572E2D2D0000F1
:100320000000582D2E2E2D000000592D2E2D2D00B1
:1003300000005A2D2D2E2E000000000000000000AD
:100340000000412041204100534F53004120424FC3
:100350005800444149525920515545454E00544892
:1003600045205348415045204F462057415445525F
:1003700000004441524B45535420484F5552000011
:1003800054485245452042494C4C424F41524453F7
:10039000204F55545349444520454242494E472039
:1003A0004D4953534F55524900004F482043414E49
:1003B000414441204F5552204F574E20414E44203A
:1003C0004E4154495645204C414E4400492043413A
:1003D0004E2048415A20434845455A4255524745C8
:1003E00052005748415420474F4420484154482028
:0803F00057524F5547485400D5
:00000001FF
