:100000000C9472000C948B000C948B000C948B005D
:100010000C948B000C948B000C948B000C948B0034
:100020000C948B000C948B000C948B000C948B0024
:100030000C948B000C948B000C948B000C948B0014
:100040000C948B000C948B000C948B000C948B0004
:100050000C948B000C948B000C948B000C948B00F4
:100060000C948B000C948B000C948B000C948B00E4
:100070000C948B000C948B000C948B000C948B00D4
:100080000C948B000C948B000C948B000C948B00C4
:100090000C948B000C948B000C948B000C948B00B4
:1000A0000C948B000C948B000C948B000C948B00A4
:1000B0000C948B000C948B000C948B000C948B0094
:1000C0000C948B000C948B000C948B000C948B0084
:1000D0000C948B000C948B000C948B000C948B0074
:1000E0000C948B0011241FBECFEFD1E2DEBFCDBF39
:1000F00000E00CBF12E0A0E0B2E0E6ECF1E000E0CE
:100100000BBF02C007900D92A030B107D9F70E9433
:100110008D000C94E1000C9400008FEF80930A0195
:1001200084B980E880930B0115B880E197E220E95B
:1001300031E0F9013197F1F70197D9F770E220E941
:1001400031E058E042E060E870930B0115B880E1BF
:1001500097E2F9013197F1F70197D9F750930B0125
:1001600015B880E197E2F9013197F1F70197D9F7D6
:1001700040930B0115B880E197E2F9013197F1F74F
:100180000197D9F710920B0155B980E197E2F90177
:100190003197F1F70197D9F710920B0145B980E13A
:1001A00097E2F9013197F1F70197D9F760930B01C5
:1001B00015B880E197E2F9013197F1F70197D9F786
:0601C000C3CFF894FFCF4D
:00000001FF
