:020000020000FC
:040000000C94E1017A
:040044000C946402B2
:1000A8000C9475020F932F933F93009132000F7DAC
:1000B80024FD00620093340000912C00077F25FD89
:1000C800086000932E0000910001077F26FD08605C
:1000D80000930201009100010F7E27FD006100934B
:1000E80002010091000100640093020131E00E94C6
:1000F800A401009100010F7B009302013F912F9111
:100108000F9108952F933F930F93DF93CF93DEB70B
:10011800CDB729850E94560032E30E94A40122959A
:100128000E94560032E30E94A401CF91DF910F9103
:100138003F912F9108950F933F932F93DF93CF9380
:10014800DEB7CDB72985009100010F7D009302012C
:100158002F930E9486002F91243018F432E00E94D9
:10016800AE01CF91DF912F913F910F9108950F9399
:100178002F93DF93CF93DEB7CDB728850091000189
:100188000062009302012F930E9486002F91009134
:100198000102039500930102CF91DF912F910F91F6
:1001A80008950F931F93DF93CF93FF93EF93DEB7D9
:1001B800CDB7FB85EA851191103029F01F930E9475
:1001C800BB001F91F8CFEF91FF91CF91DF911F9165
:1001D8000F9108950F931F93DF93CF93DEB7CDB799
:1001E8000885198511301CF011E00C94FE000F30C1
:1001F8000CF00FE01093000200930102113019F483
:1002080010EC0C94080110E8010F0F930E949F0056
:100218000F91CF91DF911F910F9108950F9301E0F6
:100228000F930E949F000F910027009300020093F4
:1002380001020F9108950F932F933F93009133007C
:10024800006200933300009132000F7D0093340068
:1002580000912D00086000932D0000912C00077F6D
:1002680000932E00009101010860009301010091A4
:100278000001077F009302010091010100610093D2
:100288000101009100010F7E00930201009101011C
:10029800006200930101009100010F7D00930201AB
:1002A80000910101006400930101009100010F7B9E
:1002B800009302013FE00E94AE0135E00E94AE01CA
:1002C80020E30E94560035E00E94AE0120E30E9420
:1002D800560057E03FE00E94AE015A95D9F720E357
:1002E8000E94560032E30E94A40120E20E945600B8
:1002F80032E30E94A40108E20F930E949F000F912D
:1003080008E00F930E949F000F9101E00F930E9455
:100318009F000F9132E00E94AE0106E00F930E9409
:100328009F000F910CE00F930E949F000F910027F0
:1003380000930002009301023F912F910F910895BD
:100348000F933F9305E00A95F1F73A95D9F73F9156
:100358000F9108950F931F933F93DF93CF930DEF62
:10036800309F012D0295007FD02F002D0295102F70
:10037800007F1F70C02FD12B2197F1F7CF91DF910C
:100388003F911F910F9108950F93FF93EF93BF93A0
:10039800AF93DF93CF93DEB7CDB7EB85FC85AD8503
:1003A800BE85059100300D93E1F7CF91DF91AF91B4
:1003B800BF91EF91FF910F91089507E800937A009C
:1003C80000E400937C000EE10093890005E80093A7
:1003D800880000E0009380000DE00093810002E0B7
:1003E80000936F0006E0009399000BE100939800DA
:1003F80000E0009390000DE00093910000E000936E
:10040800A9000CE90093A80000E00093A0000DE00B
:100418000093A10002E00093720078940CDFFEDEE6
:1004280000E0009316020093150200930200009367
:1004380017000093190201E00093020208B301FFBC
:10044800FDCF00E01EE00F931F93C4DE1F910F91B4
:1004580002E008BB00910202013049F000E20F936C
:1004680086DE0F9100E20F9382DE0F9108C00CE345
:100478000F937DDE0F910EE30F9379DE0F9101E06C
:100488001BE00F931F93A6DE1F910F91109102009E
:10049800009117001F930F9312E005E01F930F932D
:1004A8005CD00F910F910F910F9145E0F2E0E5E0DC
:1004B80001910F935CDE0F914A95D1F7BFCFFFCF23
:1004C8000F931F9300913F000F930091020211E0D8
:1004D8000127009302020F9100933F001F910F9193
:1004E80018950F931F9300913F000F9300911502E9
:1004F8000093160217D000911502003069F00091A0
:100508001602013049F0D0910200C09117002196DF
:10051800D0930200C09317000F9100933F001F91E2
:100528000F91189500917A00006400937A00009169
:100538007A0006FDFCCF0091780010917900133005
:1005480034F40F9301E0009315020F9108950F936F
:1005580000E0009315020F9108953F932F935F9346
:100568004F936F937F930F920F93DF93CF93FF93E4
:10057800EF93DEB7CDB73B892A893F7700247727E9
:1005880000E36627703019F440E157E211C071307A
:1005980019F448EE53E00CC0723019F444E650E008
:1005A80007C0733019F44AE050E002C0622F07C058
:1005B8006395241B350BE2F76A95240F351FF989DB
:1005C800E889E70FF01D600F60837395753009F0B7
:1005D800D8CFEF91FF91CF91DF910F910F907F913D
:0C05E8006F914F915F912F913F9108950A
:00000001FF
