:020000020000FC
:040000000C94AF01AC
:100044000C940A020F932F933F93009132000F7D7B
:1000540024FD00620093340000912C00077F25FDED
:10006400086000932E0000910001077F26FD0860C0
:1000740000930201009100010F7E27FD00610093AF
:1000840002010091000100640093020131E00E942A
:100094007201009100010F7B009302013F912F91A7
:1000A4000F9108952F933F930F93DF93CF93DEB770
:1000B400CDB729850E94240032E30E947201229563
:1000C4000E94240032E30E947201CF91DF910F91CC
:1000D4003F912F9108950F933F932F93DF93CF93E5
:1000E400DEB7CDB72985009100010F7D0093020191
:1000F4002F930E9454002F91243018F432E00E9470
:100104007C01CF91DF912F913F910F9108950F932F
:100114002F93DF93CF93DEB7CDB7288500910001ED
:100124000062009302012F930E9454002F910091CA
:100134000102039500930102CF91DF912F910F915A
:1001440008950F931F93DF93CF93FF93EF93DEB73D
:10015400CDB7FB85EA851191103029F01F930E94D9
:1001640089001F91F8CFEF91FF91CF91DF911F91FB
:100174000F9108950F931F93DF93CF93DEB7CDB7FD
:100184000885198511301CF011E00C94CC000F3057
:100194000CF00FE01093000200930102113019F4E7
:1001A40010EC0C94D60010E8010F0F930E946D0020
:1001B4000F91CF91DF911F910F9108950F9301E05B
:1001C4000F930E946D000F9100270093000200938B
:1001D40001020F9108950F932F933F9300913300E1
:1001E400006200933300009132000F7D00933400CD
:1001F40000912D00086000932D0000912C00077FD2
:1002040000932E0000910101086000930101009108
:100214000001077F00930201009101010061009336
:100224000101009100010F7E009302010091010180
:10023400006200930101009100010F7D009302010F
:1002440000910101006400930101009100010F7B02
:10025400009302013FE00E947C0135E00E947C0192
:1002640020E30E94240035E00E947C0120E30E94E8
:10027400240057E03FE00E947C015A95D9F720E31F
:100284000E94240032E30E94720120E20E942400B2
:1002940032E30E94720108E20F930E946D000F91F5
:1002A40008E00F930E946D000F9101E00F930E94EC
:1002B4006D000F9132E00E947C0106E00F930E94D2
:1002C4006D000F910CE00F930E946D000F910027B9
:1002D40000930002009301023F912F910F91089522
:1002E4000F933F9305E00A95F1F73A95D9F73F91BB
:1002F4000F9108950F931F933F93DF93CF930DEFC7
:10030400309F012D0295007FD02F002D0295102FD4
:10031400007F1F70C02FD12B2197F1F7CF91DF9170
:100324003F911F910F9108950F93FF93EF93BF9304
:10033400AF93DF93CF93DEB7CDB7EB85FC85AD8567
:10034400BE85059100300D93E1F7CF91DF91AF9118
:10035400BF91EF91FF910F9108953DDF1EE108E7F2
:10036400109389000093880000E0009380000DE062
:100374000093810002E000936F00789401E013E0A1
:100384000F931F93F7DE1F910F9108E40F93BFDEC5
:100394000F9105E60F93BBDE0F910CE60F93B7DECA
:1003A4000F910CE60F93B3DE0F910FE60F93AFDEC0
:1003B4000F910CE20F93ABDE0F9100E20F93A7DED7
:1003C4000F9107E70F93A3DE0F910FE60F939FDEC4
:1003D4000F9102E70F939BDE0F910CE60F9397DECC
:1003E4000F9104E60F9393DE0F9101E20093020252
:1003F40000E20093030201E01FE00F931F93BADEB3
:100404001F910F91009102020F9381DE0F91F3CFA0
:100414000F931F9300913F000F93009103021091DB
:10042400020200930202109303020F9100933F0013
:060434001F910F911895C5
:00000001FF
